:020000040000FA
:10000000200400106D010000710100007301000068
:100010007501000077010000790100000000000078
:100020000000000000000000000000007B01000054
:100030007D010000000000007F0100008101000040
:1000400083010000013500008301000083010000EE
:100050008301000083010000830100008301000090
:10006000F7330000830100008301000083010000DA
:100070008301000083010000830100008301000070
:100080008301000083010000830100008301000060
:1000900083010000DB3000008301000083010000C9
:1000A0008301000083010000830100008301000040
:1000B0008301000083010000830100008301000030
:1000C00083010000830100008301000000F002F8BA
:1000D00000F03CF80AA090E8000C82448344AAF1A6
:1000E0000107DA4501D100F031F8AFF2090EBAE8A4
:1000F0000F0013F0010F18BFFB1A43F0010318475C
:100100007839000098390000103A24BF78C878C1C7
:10011000FAD8520724BF30C830C144BF04680C600D
:10012000704700000023002400250026103A28BF55
:1001300078C1FBD8520728BF30C148BF0B60704759
:100140001FB503F004FC1FBD10B510BD03F085FA08
:100150001146FFF7F5FF00F09FF800F0B7F803B481
:10016000FFF7F2FF03BC00F0BBF8000008480047AF
:10017000FEE7FEE7FEE7FEE7FEE7FEE7FEE7FEE757
:10018000FEE7FEE703480449024A044B70470000BB
:10019000CD000000200200102004001020020010FA
:1001A000F0B50B4644003B4D1946102B01D3103BD4
:1001B000641C55F824604FEA430C032707FA0CF738
:1001C000BE4345F8246055F824605F0002FA07F743
:1001D0003E4345F82460F0BDF0B50B4644002D4D7C
:1001E00040351946102B01D3103B641C55F8246090
:1001F0004FEA430C032707FA0CF7BE4345F8246087
:1002000055F824605F0002FA07F73E4345F8246082
:10021000F0BD30B51F4B6833012A07D153F8204099
:1002200001258D402C4343F8204006E053F8204040
:1002300001258D40AC4343F8204030BD012806D154
:100240001449896A41F00801124A916206E028B90E
:100250001049896A21F008010E4A9162704701280D
:1002600000D1052201B90A220A4BDA67704710B59E
:100270000446A27861782078FFF792FFE2786178EF
:100280002078FFF7A9FF227961782078FFF7C1FF76
:1002900010BD000000C0024010B502F031FA02F0BB
:1002A0008EFE02F061FF03F00BF803F0E1F802F0BC
:1002B000D0FB02F0D6FB03E002F033FB02F0B5FD09
:1002C000FAE700BFFEE77047704770470446AFF398
:1002D00000802046FFF743FF00487047BC01001034
:1002E00003494FF01800ABBE704700000900000042
:1002F000260002007047000000000000FFFFFFFF23
:1003000070B5054635B1012D09D0022D0CD0032D55
:1003100014D10EE0022001F02BFD04460EE0042073
:1003200001F026FD044609E02C2001F021FD0446E1
:1003300004E02E2001F01CFD044600BF00BF204653
:1003400070BD7FB504460D462046FFF7D9FF06462F
:100350000020CDE90260DDE90201A5FB000205FBFA
:100360000121CDE90001FEA00CC8009803F0FEF8C1
:10037000CDE90201029804B070BD01464FF0FF3094
:10038000B1F1402F01D100200DE0F74A914201D197
:10039000012008E0F54A914201D1022003E0F44A2D
:1003A000914200D10320704770B504460E46B4F167
:1003B000402F08D0EC48844205D0EC48844202D05B
:1003C000EB48844200D103E0AC21EAA0FFF779FFBB
:1003D0004EB1012E07D0022E05D0032E03D0042EDD
:1003E00001D0052E00D103E0AD21E2A0FFF769FFA7
:1003F00021680120B0400140CDB20DB1012070BD97
:100400000020FCE770B504460E46B4F1402F08D03A
:10041000D548844205D0D548844202D0D44884428D
:1004200000D103E0CA21D3A0FFF74BFF4EB1012E4C
:1004300007D0022E05D0032E03D0042E01D0052EA6
:1004400000D103E0CB21CBA0FFF73BFF2068311D9B
:1004500001228A401040C5B20DB1012070BD0020BC
:10046000FCE770B504460D46B4F1402F08D0BE48F5
:10047000844205D0BD48844202D0BD48844200D1A8
:1004800003E0E321BBA0FFF71CFF4DB1012D07D016
:10049000022D05D0032D03D0042D01D0052D00D150
:1004A00003E0E421B3A0FFF70CFF0120A840206087
:1004B00070BD70B505460C46B5F1402F08D0AA486E
:1004C000854205D0A948854202D0A948854200D17D
:1004D00003E0FA21A7A0FFF7F4FE4CB1012C07D0EE
:1004E000022C05D0032C03D0042C01D0052C00D104
:1004F00003E0FB219FA0FFF7E4FE201D01218140C6
:10050000296070BD28B90A46012311461370536053
:1005100004E00A4600231146537000BF70472DE9DE
:10052000F04704460E461546B4F1402F08D08E48D9
:10053000844205D08D48844202D08D48844200D147
:1005400004E040F231118BA0FFF7BBFE1EB1012E7B
:1005500001D000D000D104E04FF4997185A0FFF7DD
:10056000B0FEB4F1402F08D10121022001F01DFCA2
:100570000021022001F0B8FB22E07B48844208D130
:100580000121042001F011FC0021042001F0ACFB4A
:1005900016E07648844208D10121880501F005FC67
:1005A00000212C2001F0A0FB0AE07148844207D111
:1005B0000121C80501F0F9FB00212E2001F094FB78
:1005C000A06A20F00300A062A06AA0620020A060E0
:1005D0002061E060606840F002006060606820F0C8
:1005E000020060608EB92F463D46387818B97868A9
:1005F000401EE06017E02046FFF7BFFE81467968A5
:10060000FFF79FFE401EE0600DE0A846A06A20F0C4
:100610000C00A062454698F80100012803D1A06AA9
:1006200040F00400A0624FF0FF302060BDE8F0878A
:1006300010B50446B4F1402F08D04B48844205D091
:100640004A48844202D04A48844200D104E040F241
:100650007F1148A0FFF735FE00206060B4F1402F05
:1006600004D10021022001F0A0FB18E03E488442A2
:1006700004D10021042001F098FB10E03B488442A3
:1006800005D100214FF4800001F08FFB07E03848CE
:10069000844204D100214FF4800001F086FB10BD9C
:1006A00070B504460D46B4F1402F08D02E48844260
:1006B00005D02E48844202D02D48844200D104E067
:1006C0004FF4D0712BA0FFF7FCFD012D04D1606821
:1006D00040F00100606003E0606820F001006060AD
:1006E00070BD10B50446B4F1402F08D01E488442B6
:1006F00005D01E48844202D01D48844200D104E047
:100700004FF4DC711BA0FFF7DCFD606840F00200D5
:100710006060606820F00200606010BD70B5044643
:100720000D46B4F1402F08D00F48844205D00F4841
:10073000844202D00E48844200D104E040F2D71136
:100740000CA0FFF7BEFD287940B12879012805D01B
:100750002879022802D0287903281BD120E0000044
:1007600040420F00000000000080004000000940EF
:10077000004009402E2E5C46574C49425C736F7511
:100780007263655C6C7063313778785F74696D652E
:10079000722E63004FF4EC71AFF22800FFF791FD69
:1007A000287830B1012807D0022808D003280CD1BE
:1007B00008E0A868A0610AE0A868E06107E0A8680E
:1007C000206204E0A868606201E000BFFEE700BFAD
:1007D0006169287800EB4002072090408143616105
:1007E000687838B16169287800EB400201209040B8
:1007F00001436161E87840B16269287800EB40000C
:10080000401C012181400A436261A87840B16269BD
:10081000287800EB4000801C012181400A4362617E
:10082000E06B2978042202EB4102032191408843C6
:10083000E063287900F003002978042202EB4101EB
:100840008840E16B0843E06370BD70B504460E4616
:100850001546B4F1402F08D04348844205D04348A0
:10086000844202D04248844200D105E040F20D218A
:10087000AFF20010FFF725FD36B1012E06D0022E93
:1008800006D0032E08D105E0A56107E0E56105E08B
:10089000256203E0656201E000BFFEE700BF70BDB6
:1008A00070B504460D46B4F1402F08D02E4884425E
:1008B00005D02E48844202D02D48844200D105E064
:1008C00040F23321AFF25410FFF7FBFCA16A287805
:1008D00000EB4002072090408143A162687838B164
:1008E000A16A287800EB4002012090400143A162F8
:1008F000A87840B1A26A287800EB4001491C012089
:1009000088400243A262E87840B1A26A287800EBEE
:100910004001891C012088400243A26270BD70B56D
:1009200004460D46B4F1402F08D00F48844205D04C
:100930000E48844202D00E48844200D105E040F2C5
:100940004E21AFF2D010FFF7BCFC0DB1012D00D14C
:1009500005E040F24F21AFF2E410FFF7B2FC0DB911
:10096000E06A70BD206BFCE7008000400000094099
:10097000004009402DE9F34F93B000201190FF494A
:100980001398884204D1062001F0F2F9044619E0D8
:10099000FB491398884204D1082001F0E9F9044684
:1009A00010E0F8491398884204D1302001F0E0F9B2
:1009B000044607E0F4491398884203D1322001F03D
:1009C000D7F904464FF0FF3A002010900027EFA11E
:1009D00003C9CDE90E01012655E000254BE00020BA
:1009E0000794CDE90440000740EA14102107CDE93F
:1009F00002100846A6FB0002039906FB0121CDE97F
:100A000000017019149900FB01FB002003465A46AF
:100A1000CDE908B0DDE9000102F0A8FDCDE90C0147
:100A2000DCA3DDE90C010CCB104019408146CDE977
:100A3000080100210D988046CDE90801B9F1004F69
:100A400003D9C9F1000908F10108B8F1000F02D07B
:100A5000B8F5803F00D90DE0D1450AD2CA464046DC
:100A60000021CDE90E81109537465FEA0A0900D1D1
:100A700003E000BF6D1CB542B1D300BFBAF1000F57
:100A800000D102E0761C0F2EA7D900BFBFA00CC872
:100A9000DDE90E0159405040084302D115B0BDE8D0
:100AA000F08F10983918DDE90E20A1FB023201FB0E
:100AB0000020CDE90830200900FB07FB0020CDE92C
:100AC00006B001465846DDE9082302F04FFDCDE9A6
:100AD00004010B9014990B98814204D914990B9836
:100AE000A1EB000A03E00B991498A1EB000A642023
:100AF0000AFB00F01499B0FBF1FABAF1030F6BD2C4
:100B00009F491398884231D11398007B40F08000B0
:100B100013990873DDE90E01000A40EA0160090A31
:100B20009EA2CDE90801D2E9003218401140CDE97A
:100B30000601C1B21398017198A3DDE90E100CCB28
:100B400011401840CDE90810139801701398007BEC
:100B500000F07F0013990873F02000EA0710109945
:100B600001F00F0108431399886233E01398007B6A
:100B700040F0800013990873DDE90E01000A40EA95
:100B80000160090ACDE90801014684A20998D2E969
:100B9000003219401040CDE90610139801717FA36F
:100BA000DDE90E010CCB10401940CDE90801C1B2BE
:100BB000139801701398007B00F07F00139908735D
:100BC000F02000EA0710109901F00F010843139973
:100BD00081F828000120119011985FE770B5044654
:100BE0000D466648844208D06548844205D0654871
:100BF000844202D06448844200D103E0CF2169A03E
:100C0000FFF75FFB687940B16879012805D0687902
:100C1000022802D06879032800D103E0D02161A026
:100C2000FFF74FFBA87910B1A879012800D103E0A4
:100C3000D1215CA0FFF745FB287958B1287901281C
:100C400008D02879022805D02879032802D02879ED
:100C5000042800D103E0D22152A0FFF732FB47481D
:100C6000844203D10121082001F09FF844488442C6
:100C700003D10121102001F098F84248844203D1A9
:100C80000121080601F091F83F48844203D1012177
:100C9000480601F08AF83A48844221D107202072A0
:100CA0000020207200E02678207D10F0010FFAD19C
:100CB000802084F8300000BF207D10F0200FFBD092
:100CC000002084F83000606020732062207484F873
:100CD0004C0084F8540084F85000267E267D18E0ED
:100CE000072020720020207200E02678207D10F07E
:100CF000010FFAD1802084F8300000BF207D10F071
:100D0000200FFBD0002084F8300060602073206248
:100D1000267D1D48844202D1002084F8240020460C
:100D20002968FFF727FE1648844203D1207B00F094
:100D3000C00602E0207B00F0C006687930B10128CF
:100D400006D0022807D0032809D007E000BF09E039
:100D500046F0010606E046F0020603E000BF46F05A
:100D6000030600BF00BF287960B346F00806287963
:100D700001282CD002282CD0032824E000C00040F9
:100D8000000001400080094000C009400000000050
:100D900000000000FFFFFFFF00000000FF00000058
:100DA000000000002E2E5C46574C49425C736F7564
:100DB0007263655C6C7063313778785F75617274EB
:100DC0002E63000010E007D004280BD107E000BF1D
:100DD00009E046F0100606E046F0200603E046F083
:100DE000300600E000BF00BFA87928B1012802D179
:100DF00046F0040601E000BF00BF00BFFB4884428C
:100E000001D1267300E0267370BD70B504460D460F
:100E1000F748844208D0F548844205D0F54884421A
:100E200002D0F548844200D105E04FF47C71AFF266
:100E30008C00FFF746FA0DB1012D00D105E040F21C
:100E4000F131AFF2A000FFF73CFA012D10D1E748D5
:100E5000844206D194F8300040F0800084F83000DD
:100E600014E094F8300040F0800084F830000DE089
:100E7000DE48844205D194F83000002084F8300028
:100E800004E094F83000002084F8300070BD10B504
:100E90000446D748844208D0D448844205D0D54877
:100EA000844202D0D448844200D105E040F29B1134
:100EB000AFF21010FFF705FA00212046FFF7A5FF5B
:100EC000CB48844203D10021082000F06EFFC748C0
:100ED000844203D10021102000F067FFC5488442FE
:100EE00004D100214FF0807000F05FFFC2488442BF
:100EF00004D100214FF0007000F057FF10BD4FF4F7
:100F00001651016003214171002101718171704707
:100F100070B505460C46B648854208D0B3488542B0
:100F200005D0B448854202D0B348854200D105E0DF
:100F300040F2DF11AFF29410FFF7C3F9AB488542DE
:100F400001D12C7000E02C7070BD10B50446A8488B
:100F5000844208D0A548844205D0A648844202D0E5
:100F6000A548844200D105E04FF4FC71AFF2CC10EB
:100F7000FFF7A7F99D48844201D1207810BD207861
:100F8000FCE72DE9FF5F04460D461646AB463746A3
:100F90000398012829D14FF0000823E04FF0FF39D2
:100FA00005E0B9F1000F00D105E0A9F10109207DAC
:100FB00010F0200FF5D000BFB9F1000F00D113E001
:100FC0004FF0100A09E01BF8011B2046FFF7A0FFB5
:100FD000AAF1010A7F1E08F10108BAF1000F01D041
:100FE000002FF0D1002FD9D11CE04FF0000816E0FF
:100FF000207D10F0200F00D113E04FF0100A09E01F
:101000001BF8011B2046FFF783FF7F1EAAF1010A90
:1010100008F10108BAF1000F01D0002FF0D1002F24
:10102000E6D100BF404604B0BDE8F09F2DE9F05F77
:1010300004460D4616461F46AB46B046012F21D149
:101040004FF000091AE04FF0FF3A05E0BAF1000F47
:1010500000D105E0AAF1010A207D10F0010FF5D0C2
:1010600000BFBAF1000F00D10BE02046FFF76DFF83
:101070000BF8010BA8F1010809F10109B8F1000F03
:10108000E1D114E04FF000090DE0207D10F0010FD8
:1010900000D10BE02046FFF758FF0BF8010B09F1D8
:1010A0000109A8F10108B8F1000FEED100BF4846D0
:1010B000BDE8F09F10B504464D48844208D04B4827
:1010C000844205D04B48844202D04B48844200D130
:1010D00005E040F28A21AFF23430FFF7F2F84348DE
:1010E000844204D1207B40F04000207303E0207B49
:1010F00040F04000207310BD2DE9F04104460D463C
:1011000016463B48844208D03848844205D03948C6
:10111000844202D03848844200D105E040F2B12137
:10112000AFF28030FFF7CDF80EB1012E00D105E00F
:1011300040F2B221AFF29430FFF7C3F8072D15D279
:10114000DFE805F00406080A0C0E110001270DE087
:1011500002270BE0042709E0082707E0802705E0C5
:101160004FF4807702E04FF4007700BF00BF1F48C4
:10117000844214D15DB1012D09D0022D07D0052D77
:1011800005D0062D03D0032D01D0042D00D116E08B
:1011900040F2CE21AFF2F430FFF793F80FE03DB10B
:1011A000012D05D0022D03D0052D01D0062D00D133
:1011B00005E040F2D221AFF21440FFF782F8012E91
:1011C0000AD10A48844203D16068384360601BE05A
:1011D00060683843606017E0044884420ED161685B
:1011E00040F28F30B843014061600DE000000140E3
:1011F00000C000400080094000C00940616840F222
:101200000730B84301406160BDE8F08110B5044685
:10121000F848844208D0F848844205D0F748844210
:1012200002D0F748844200D105E04FF44071AFF29C
:101230008C40FFF746F8F048844201D1007D10BD94
:10124000207DFCE710B50446EA48844208D0EA480D
:10125000844205D0E948844202D0E948844200D162
:1012600005E040F21731AFF2C440FFF72AF8A0685A
:1012700040F2CF31084010BD0146087D10F0400F0C
:1012800001D0002070470120FCE770B504460D46F0
:101290000026D848844208D0D748844205D0D74891
:1012A000844202D0D648844200D105E040F23D316C
:1012B000AFF21050FFF705F8E87840B1E878012860
:1012C00005D0E878022802D0E878032800D105E0AC
:1012D00040F23E31AFF23450FEF7F3FFA87810B180
:1012E000A878012800D105E040F23F31AFF24C5020
:1012F000FEF7E7FF287810B12878012800D105E033
:101300004FF45071AFF26450FEF7DBFF687810B114
:101310006878012800D105E040F24131AFF27C50FD
:10132000FEF7CFFF46F00106E87830B1012806D07D
:10133000022807D0032809D007E000BF09E046F0E3
:10134000400606E046F0800603E000BF46F0C00617
:1013500000BF00BF6878012801D146F00406287854
:10136000012801D146F00206A878012801D146F0F3
:101370000806A148844203D106F0CF00207202E0A3
:1013800006F0CF00207270BD00218170C170012174
:101390000170417070472DE9F04104460D46164634
:1013A0009448844208D09448844205D093488442AB
:1013B00002D09348844200D105E04FF46671AFF249
:1013C0001C60FEF77EFF0EB1012E00D105E040F259
:1013D0009931AFF23060FEF774FF0027012E09D17A
:1013E0002878012801D147F002076878012801D147
:1013F00047F004078048844215D1012E10D1207B8C
:1014000040F080002073002020702071207B20F0AD
:10141000800020731020A06247F00100206218E0D5
:101420000020206215E0012E11D1207B40F08000C9
:101430002073002020702071207B20F0800020731A
:10144000102084F8280047F00100206201E000200D
:101450002062BDE8F08170B504460D4665488442BF
:1014600008D06548844205D06448844202D064486C
:10147000844200D105E040F2D931AFF2D860FEF7E6
:1014800020FF5D48844203D1206A2843206202E0A5
:10149000206A2843206270BD70B504460D46584846
:1014A000844200D105E040F21A41AFF20870FEF725
:1014B00008FF0DB1012D00D105E040F21B41AFF254
:1014C0001C70FEF7FEFE012D06D194F8240040F0BA
:1014D000020084F8240006E02DB994F8240000F0FE
:1014E0003D0084F8240070BD70B504460D464448A4
:1014F000844200D105E040F23241AFF25870FEF76D
:10150000E0FE0DB1012D00D105E040F23341AFF214
:101510006C70FEF7D6FE012D06D194F8240040F041
:10152000010084F8240005E094F8240000F03E0057
:1015300084F8240070BD2DE9F04104460D46304882
:10154000844200D105E040F25341AFF2A870FEF7AB
:10155000B8FE6DB1012D0BD0022D09D0032D07D09F
:10156000042D05D0052D03D0062D01D0072D00D167
:1015700005E040F25441AFF2D470FEF7A2FE6807D6
:10158000860E94F8240020F0380746F00400074344
:1015900007F03F0084F82400BDE8F0812DE9F04118
:1015A00004460D46174600261348844200D105E044
:1015B00040F27341AFF61400FEF783FE0DB1012D2A
:1015C00000D105E040F27441AFF62800FEF779FE45
:1015D0000FB1012F00D105E040F27541AFF63C009C
:1015E000FEF76FFE15B1012D0CD101E001260AE0D6
:1015F000022608E000C000400000014000800940D1
:1016000000C0094000BF00BF012F03D1207C304340
:10161000207404E0217CF320B04301402174BDE834
:10162000F0812DE9F04104460D4616469748844264
:1016300000D105E040F29B41AFF69800FEF741FE75
:101640001DB1012D01D0022D00D105E040F29C41D9
:10165000AFF6B000FEF735FE0EB1012E00D105E069
:1016600040F29D41AFF6C400FEF72BFE25B1012DDF
:1016700004D0022D06D103E0102704E0402702E049
:10168000802700E000BF00BF012E03D1207C38433B
:10169000207404E0207CF321B94308402074BDE8A5
:1016A000F08110B504467948844200D105E040F24B
:1016B000C641AFF61010FEF704FE207E10BD70B5D7
:1016C00004460D467148844200D105E040F2DA41FB
:1016D000AFF63010FEF7F5FDA87810B1A878012814
:1016E00000D105E040F2DB41AFF64810FEF7E9FD1E
:1016F000E87810B1E878012800D105E040F2DC413B
:10170000AFF66010FEF7DDFDE879FF2800DA05E0AE
:1017100040F2DD41AFF67410FEF7D3FD687910B1E9
:101720006879012800D105E040F2DE41AFF68C1067
:10173000FEF7C7FD287910B12879012800D105E00E
:1017400040F2DF41AFF6A410FEF7BBFDA879FF28F9
:1017500000DA05E04FF49C61AFF6B810FEF7B1FD7A
:10176000287810B12878012800D105E040F2E14145
:10177000AFF6D010FEF7A5FD687810B168780128A3
:1017800000D105E040F2E241AFF6E810FEF799FD26
:101790000026E87801280ED146F010066879012865
:1017A00001D146F020062879012801D146F008062B
:1017B000E87984F854002878012801D146F0010620
:1017C000A878012804D146F00406A87984F85000CE
:1017D000687808B946F0020606F03F0084F84C002D
:1017E000207B40F03800207370BD012906D190F8AD
:1017F0004C2022F0020280F84C2005E090F84C20AA
:1018000042F0020280F84C2070472DE9F047044670
:101810000D4616469946B9F1000F14D094F80C8085
:10182000474627F0100727730123324629462046F2
:10183000FFF7A7FB824600BF207D10F0400FFBD0D2
:1018400084F80C800BE00123324629462046FFF73E
:1018500098FB824600BF207D10F0400FFBD0504621
:10186000BDE8F08713B5044601231A4601A92046B6
:10187000FFF7CBFF1CBD70B504460D46164600238E
:10188000324629462046FFF7C0FF70BD00000140E8
:1018900001460020052912D2DFE801F00305080BFC
:1018A0000E00FE480CE0FD48203009E0FB484030C7
:1018B00006E0FA48603003E0F848803000E000BFFE
:1018C00000BF704701460020052912D2DFE801F071
:1018D0000305080B0E00F1480CE0F048203009E049
:1018E000EE48403006E0ED48603003E0EB488030E1
:1018F00000E000BF00BF704701460020052912D25A
:10190000DFE801F00305080B0E00E4480CE0E348B3
:10191000203009E0E148403006E0E048603003E074
:10192000DE48803000E000BF00BF70472DE9F04185
:1019300004460D4616462046FFF7AAFF07463FB16C
:101940001EB138682843386002E03868A843386020
:10195000BDE8F08170B504460D462046FFF798FFBC
:10196000064606B1B56170BD70B504460D46204609
:10197000FFF78EFF064606B1F56170BD70B50446EF
:101980002046FFF785FF05460DB1686970BD002050
:10199000FCE718B912B9C24B196014E0022803D150
:1019A00012B9C04B19600EE020B9012A02D1BE4B1A
:1019B000196008E0022804D1012A02D1BB4B19604A
:1019C00001E000BFFEE7704703463BB932B9B848B3
:1019D000006820FA01F000F001007047022B07D1E7
:1019E00032B9B448006820FA01F000F00100F4E7D1
:1019F00043B9012A06D1B048006820FA01F000F08E
:101A00000100EAE7022B08D1012A06D1AB480068A1
:101A100020FA01F000F00100DFE700BFFEE710B997
:101A2000A74A116006E0022802D1A64A116001E02F
:101A300000BFFEE7704770B504460D4616463246B5
:101A400029462046FFF772FF70BD70B504460D466B
:101A500029462046FFF77EFF70BD70B504460D464F
:101A600029462046FFF780FF70BD10B5044620468A
:101A7000FFF784FF10BD70B504460D46164632468A
:101A800029462046FFF785FF70BD70B504460D4618
:101A90001646324629462046FFF796FF70BD10B520
:101AA00003460C4621461846FFF7B9FF10BD2DE945
:101AB000F04104460D4616462046FFF7E9FE07466C
:101AC0003FB11EB138692843386102E03869A84344
:101AD0003861BDE8F0812DE9F04104460D46164617
:101AE0001F462046FFF7EEFE8046B8F1000F19D0E2
:101AF00067B12DB1B8F802003043A8F8020011E038
:101B0000B8F800003043A8F800000BE02DB1B8F899
:101B10000200B043A8F8020004E0B8F80000B043A7
:101B2000A8F80000BDE8F0812DE9F04104460D461B
:101B300016461F462046FFF7C5FE8046B8F1000F47
:101B400019D067B12DB1B8F812003043A8F81200CF
:101B500011E0B8F810003043A8F810000BE02DB1E8
:101B6000B8F81200B043A8F8120004E0B8F810006A
:101B7000B043A8F81000BDE8F0812DE9F04104461B
:101B80000D4616462046FFF79DFE07461FB10DB1D4
:101B90007E8300E03E83BDE8F0812DE9F0410446FC
:101BA0000D4616462046FFF78DFE07461FB10DB1C4
:101BB000FE8300E0BE83BDE8F08170B504460D46AB
:101BC0002046FFF77FFE064626B10DB1F08A70BDB4
:101BD000B08AFCE70020FAE72DE9F04104460D4603
:101BE00016461F462046FFF787FE8046B8F1000FD5
:101BF0000FD03FB1032D0CDC18F80500304308F876
:101C0000050006E0032D04DC18F80500B04308F8D1
:101C10000500BDE8F0812DE9F04104460D46164669
:101C200098462046FFF768FE07469FB1B8F1000FBF
:101C300007D0032D0EDC07F11000415D3143415503
:101C400008E0032D06DC07F11000405DB04307F10A
:101C500010014855BDE8F0812DE9F04104460D46DC
:101C600017462046FFF748FE064626B1032D02DC44
:101C700006F118004755BDE8F0812DE9F041044612
:101C80000D4617462046FFF737FE064626B1032DC0
:101C900002DC06F11C004755BDE8F08100C00920B8
:101CA00090800240B080024094800240B4800240A4
:101CB00084800240A480024088800240A8800240C4
:101CC0008C800240AC80024070B504460E4620462F
:101CD000FFF712FE05462DB1032E03DC05F11400BB
:101CE000805D70BD0020FCE710B5202801D20346BE
:101CF00001E0A0F120031A46202814D2494B1C68A9
:101D00004FF0030303FA02F324EA0304464BC3F83B
:101D1000A841444B1C6801FA02F344EA0304424B15
:101D2000C3F8A84113E0414B1C684FF0030303FACA
:101D300002F324EA03043C4BC3F8AC413B4B1B6861
:101D400001FA02F443EA0403374CC4F8AC3110BD85
:101D50000146202903D20A46324B186803E0A1F15C
:101D60002002324B186820FA02F303F00300704798
:101D700070B504462E4805682046FFF7E9FF064681
:101D800036B1012E06D0022E06D0032E08D105E072
:101D9000042605E0012603E0022601E0082600BF34
:101DA00000BFB5FBF6F5284670BD01290AD1214ACE
:101DB0001368214A00EA020243EA02031A4AC2F8FF
:101DC000C4300AE049B91B4A13681B4A22EA0002E0
:101DD00003EA0203144AC2F8C430704700201749CE
:101DE000086030BF70470420154908604FF00000BC
:101DF0000D49C1F8C00030BF704704201049086089
:101E00004FF001000849C1F8C00030BF70470420FE
:101E10000B4908604FF003000349C1F8C00030BF10
:101E200070470000A8C10F4000C00F40ACC10F4078
:101E300000000010C4C00F40DEF7EFEFC0C00F403D
:101E400010ED00E070B504460D46FB48844200D119
:101E500003E04E21F9A0FEF734FA012D12D0022D35
:101E600010D0042D0ED0082D0CD0B5F5807F09D0F0
:101E7000B5F5806F06D0B5F5007F03D0102D01D0E9
:101E8000202D00D103E04F21ECA0FEF71AFA2068C4
:101E9000284201D0012000E00020C0B270BD70B522
:101EA00005460C46E448854200D103E06721E3A0E3
:101EB000FEF707FA012C12D0022C10D0042C0ED001
:101EC000082C0CD0B4F5807F09D0B4F5806F06D013
:101ED000B4F5007F03D0102C01D0202C00D103E0FA
:101EE0006821D6A0FEF7EDF92C6070BD2DE9F04118
:101EF00007460C460FB1012F00D103E08321CFA08C
:101F0000FEF7DFF9254626461FB9012028706860D4
:101F100005E0012F03D10020707001203070BDE872
:101F2000F0812DE9FF4704460D461746C24884421A
:101F300000D103E0A821C1A0FEF7C3F90DB1012D26
:101F400000D103E0A921BDA0FEF7BBF9B8463E468B
:101F500001214020FFF729FF00210C20FFF7C4FEDC
:101F60000C20FFF705FF81460020CDE902903F20BD
:101F700020600020606020676061A062E0642065EE
:101F8000002D29D198F8000018B198F80000012818
:101F900000D103E0C021A9A0FEF793F998F8000052
:101FA00020B9D8F80400401EE06038E0D8F80400FA
:101FB000DDE90212A0FB011300FB0230CDE90010A5
:101FC000A6A00CC8DDE9000101F0D0FACDE90201BC
:101FD0000298401EE06022E0012D20D1707810B1FF
:101FE0007078012800D103E0D12194A0FEF769F9AF
:101FF0003078012805D03078022802D030780328C4
:1020000000D103E0D2218DA0FEF75BF9707800F0DB
:102010000301307861F39F00216F08432067BDE81A
:10202000FF8710B504468448844200D103E0E121D3
:1020300082A0FEF746F90020606000214020FFF7F3
:10204000B4FE10BD70B504460D467B48844200D1F5
:1020500003E0F42179A0FEF734F90DB1012D00D190
:1020600003E0F52175A0FEF72CF9012D04D160687D
:1020700040F00800606003E0606800F0030060600A
:1020800070BD70B504460D466B48844200D104E033
:102090004FF4867169A0FEF714F90DB1012D00D13E
:1020A00004E040F20D1165A0FEF70BF9012D04D1FB
:1020B000606840F00100606003E0606800F00A00C2
:1020C000606070BD10B504465B48844200D104E0F6
:1020D0004FF4907159A0FEF7F4F8606840F00200E8
:1020E0006060606800F00900606010BD70B5044673
:1020F0000D465148844200D104E04FF498714FA03E
:10210000FEF7DFF82878062800DC04E040F2311101
:102110004AA0FEF7D6F8687810B16878012800D197
:1021200004E04FF4997145A0FEF7CBF8E87810B1C0
:10213000E878012800D104E040F233113FA0FEF717
:10214000C0F8A87810B1A878012800D104E04FF4B5
:102150009A713AA0FEF7B5F8687801280AD1287874
:1021600000F0070000EB400101208840616908434E
:1021700060610BE0287800F0070000EB40000121CF
:10218000814038488843616908406061E8780128E7
:102190000BD1287800F0070000EB4001491C01201A
:1021A00088406169084360610CE0287800F007000E
:1021B00000EB4000401C012181402A4888436169AE
:1021C00008406061A87801280BD1287800F007004A
:1021D00000EB4001891C012088406169084360616F
:1021E0000CE0287800F0070000EB4000801C012183
:1021F00081401C48884361690840606170BD70B5CA
:1022000004460D460C48844200D104E040F26311BC
:102210000AA0FEF756F8287810B12878012800D1D6
:1022200004E04FF4B27105A0FEF74BF8A87810B1A6
:10223000A878012818D11DE0008001402E2E5C46B0
:10224000574C49425C736F757263655C6C706331A7
:102250003778785F70776D2E6300000040420F0082
:1022600000000000FFFF1F0040F26511AFF23400D4
:10227000FEF727F8E87810B1E878012800D105E0EA
:102280004FF4B371AFF24C00FEF71BF8687810B151
:102290006878012800D105E040F26711AFF26400D0
:1022A000FEF70FF8687801280BD1287800F00200BB
:1022B000297860F35F0101208840A16A0843A06289
:1022C0000CE0287800F00200297860F35F0101201B
:1022D00088403F218143A06A0140A162A87801287B
:1022E0000CD1287800F00200297860F35F01491CC6
:1022F00001208840A16A0843A0620DE0287800F020
:102300000200297860F35F01491C012088403F21C9
:102310008143A06A0140A162E87801280CD12878A5
:1023200000F00200297860F35F01891C01208840D9
:10233000A16A0843A0620DE0287800F00200297825
:1023400060F35F01891C012088403F218143A06A1E
:102350000140A16270BD70B504460D4699488442A3
:1023600000D105E04FF4C971AFF23010FDF7A9FFBD
:102370000DB1012D00D105E040F29311AFF24410F0
:10238000FDF79FFF15B1012D04D101E0E06A70BD9A
:10239000206BFCE70020FAE72DE9F04104460D46EA
:1023A00016461F468748844200D105E04FF4D97194
:1023B000AFF27810FDF785FF062D00DC05E040F256
:1023C000B311AFF28810FDF77CFF0FB1012F00D1E0
:1023D00005E04FF4DA71AFF29C10FDF772FF072DA4
:1023E00013D2DFE805F00406080A0C0E1000A661FF
:1023F0000BE0E66109E0266207E0666205E026641C
:1024000003E0666401E0A66400BF00BF216D072DF4
:1024100002DA0120A84000E00020014321653FB915
:10242000606840F002006060606800F00900606071
:10243000BDE8F0812DE9F04104460D46164600271F
:102440006048844200D105E040F2F111AFF214205F
:10245000FDF737FF0EB1012E00D105E04FF4F97101
:10246000AFF22820FDF72DFF4FF000081FE005EB2D
:10247000C8000079012816D1B8F1040F06DA55F822
:10248000381004F1180040F8281007E055F838100B
:10249000A8F1040204F1400040F82210012000FAE3
:1024A00008F03843C7B208F1010000F0FF08B8F1A6
:1024B000070FDCDB27653EB9606840F00200606012
:1024C000606800F009006060BDE8F08170B5044606
:1024D0000D4616463B48844200D105E04FF4067194
:1024E000AFF2A820FDF7EDFE022D02DB062D00DC89
:1024F00005E040F21921AFF2BC20FDF7E2FE0EB17B
:10250000012E00D105E040F21A21AFF2D020FDF7F4
:10251000D8FE76B9E26C05F00700022801DA002047
:1025200001E00120A84047F67C6181430A40E26453
:102530000AE0E16C05F00700022801DA002001E062
:102540000120A8400143E16470BD70B504460D460A
:1025500016461C48844200D105E040F23521AFF216
:102560002430FDF7AEFE012D02DB062D00DC05E078
:1025700040F23621AFF23C30FDF7A3FE012E0ED122
:10258000E26C05F00700012801DA002004E005F103
:102590000800012101FA00F00243E26410E0E26C5D
:1025A00005F00700012801DA002004E005F1080029
:1025B000012101FA00F047F67C6181430A40E264A0
:1025C00070BD00000080014097480068C0F30160C2
:1025D000032864D19548006810F0030006D0012854
:1025E00023D002283FD0032858D100E000BF8E48F6
:1025F0000068C0F30E0000F101004FEA40018C4872
:1026000001FB00F18B48D0F88800C0F3074000F1CF
:102610000100B1FBF0F188480068C0B200F1010090
:10262000B1FBF0F08549086038E07F480068C0F3EE
:102630000E0000F101004FEA4001814801FB00F16A
:102640007C48D0F88800C0F3074000F10100B1FBDE
:10265000F0F179480068C0B200F10100B1FBF0F080
:10266000764908601AE070480068C0F30E0000F177
:1026700001004FEA00416F48D0F88800C0F30740DE
:1026800000F10100B1FBF0F16B480068C0B200F14D
:102690000100B1FBF0F06949086000BF2FE063481A
:1026A000006810F0030006D0012810D0022819D0CD
:1026B000032823D100E000BF5F480068C0B200F1EA
:1026C00001005B49B1FBF0F05C49086016E05A4834
:1026D0000068C0B200F101005949B1FBF0F0574960
:1026E00008600BE054480068C0B200F101004FF4EC
:1026F0000041B1FBF0F05149086000BF00BF7047D6
:102700004FF04070011420224E4B1A60494AD2F813
:10271000A02112F0200F05D000BF4A4A126812F023
:10272000400FFAD00322444B1A604FF00002414B95
:10273000C3F8A821444B1A604FF001023B4B1A60CA
:10274000424A434B1A604FF0AA02424B1A604FF0C4
:1027500055021A604FF001023F4B1A604FF0AA0277
:102760003C4B1A604FF05502324BC3F88C2000BF2F
:102770002D4A126812F0806FFAD00322364B1A608D
:102780004FF0AA022B4BC3F88C204FF05502314B6F
:102790001A6000BF244A126802F04072B2F1407F12
:1027A000F8D123222D4B1A604FF0AA02214BC3F817
:1027B000AC204FF055022A4B1A604FF00102294B12
:1027C0001A604FF0AA02264B1A604FF05502194BBF
:1027D000C3F8AC2000BF244A126812F4806FFAD00C
:1027E0000322204B1A604FF0AA02124BC3F8AC2010
:1027F0004FF055021A4B1A6000BF1B4A126802F4D0
:102800004072B2F5407FF8D1184A194B1A604FF068
:102810000002084BC3F8C82143F23A021A604FF095
:102820000002144B1A60704788C00F400CC10F4063
:1028300000093D0000C00F4004C10F40000000101F
:10284000001BB700A0C10F40ACC10F4063000500E2
:1028500084C00F408CC00F4080C00F40A4C00F4008
:10286000ACC00F40A0C00F40A8C00F40DE872804B6
:10287000C4C00F4008ED00E070B502460023002000
:102880001FE0664C664D95F90050665D1C465D1C68
:102890006BB216550024614D614E96F90060AC553F
:1028A0005F4D95F900506C1CE51704EB15652D1272
:1028B000A4EB05256DB25A4E35704C1E61B2441C16
:1028C00060B2584C94F90040554D95F90050AC4217
:1028D00001D00029D5DC70BD5349097821B1012907
:1028E0000CD002291AD10FE0FB2803D101214E4A56
:1028F000117002E000214C4A117010E04B49487001
:102900000221494A11700AE0484908700121464AEB
:10291000521E11700021521C117000E000BF00BF58
:1029200070473EB5684600210A460B460EC00A2194
:102930006846FFF7A1FFC4B204B93EBD002505E01B
:102940001DF80500FFF7C8FF681CC5B2A542F7DBFC
:102950003548401E007801285ED134480078E738B9
:10296000092853D2DFE800F00512521F522C333AE7
:1029700046002E4840782E4908702C49087800F00F
:1029800057FD2B49087800F053FD40E02748407878
:10299000274948702549087800F04AFD24494878BD
:1029A00000F046FD33E021484078214988701F49F6
:1029B000087800F03DFD1E49887800F039FD26E0DA
:1029C00000F047F81949087800F032FD1FE000F0E8
:1029D00048F81649087800F02BFD18E0012014494A
:1029E000C8701249087800F023FD1149C87800F03A
:1029F0001FFD0CE000200E49C8700C49087800F05B
:102A000017FD0B49C87800F013FD00E000BF00BFC0
:102A100000200549491E08708FE70000BC00001027
:102A2000B6000010B50000100500001006000010F0
:102A30005800001010B504462CB9002212210120C4
:102A400000F061FA04E001221221104600F05BFA66
:102A500010BD0020FF49087048700220887008717E
:102A6000704710B500BFFB49087800F0D6FBF94964
:102A70004978F94A32F81110F64A1278F64B2033A9
:102A800033F8122091FBF2F000EBD07149104FF4B3
:102A90007A7201FB02F499E0EE48007920B1012836
:102AA00003D002287AD13CE079E00020FFF7C2FF92
:102AB000002000F01BFB00F04CFD00F0E6FB00F0F6
:102AC00036FD12E0E548007801280ED10020E349E8
:102AD000087000F0C6FB00F035FD00F03AFD002064
:102AE000DC49087100F029FB04E0DD490968B1EB1D
:102AF000440FE7D300BF00F0B4FB00F023FD00F06B
:102B000028FD0220D349087100F011FD00BFD44810
:102B10000068B0F5FA7FFAD300F014FD00F019FD5B
:102B20003DE00120FFF786FF012000F0DFFA00F012
:102B300010FD00F0AAFB00F0FAFC12E0C748007894
:102B400001280ED10020C549087000F08AFB00F072
:102B5000F9FC00F0FEFC0020BE49087100F0EDFA1F
:102B600004E0BF490968B1EB440FE7D300BF00F0B0
:102B700078FB00F0E7FC00F0ECFC0120B54908719F
:102B800000F0D5FC00BFB6480068B0F5FA7FFAD374
:102B900000F0D8FC00F0DDFC01E0FFE700BF00BF63
:102BA000AD484C300068401CAB494C3108600846C9
:102BB00000680A280AD900F054FB00F0C3FC00F0BA
:102BC000C8FC0020A349087100F0B7FAA1480079B9
:102BD00000287FF461AF10BD10B504469D48007910
:102BE00020B1012826D002284AD124E00020FFF796
:102BF00021FF00F04AFB00F0ACFC00F098FC00BFA5
:102C000097480068A042FBD300F02BFB00F09AFC31
:102C100000F09FFC02208F49087100F088FC00BF83
:102C20008F480068B0F5FA7FFAD300F08BFC00F013
:102C300090FC26E025E00120FFF7FCFE00F025FBDC
:102C400000F087FC00F073FC00BF85490968B1EB18
:102C5000440FFAD300F005FB00F074FC00F079FC9F
:102C600001207C49087100F062FC00BF7C480068CC
:102C7000B0F5FA7FFAD300F065FC00F06AFC00E0E2
:102C800000BF00BF10BD10B504467248007920B1E6
:102C9000012826D002284AD148E00120FFF7CAFEC9
:102CA00000F0F3FA00F055FC00F041FC00BF6C4866
:102CB0000068A042FBD300F0D4FA00F043FC00F01F
:102CC00048FC01206349087100F031FC00BF6448F2
:102CD0000068B0F5FA7FFAD300F034FC00F039FC5C
:102CE00026E00020FFF7A6FE00F0CFFA00F031FC4E
:102CF00000F01DFC00BF5A490968B1EB440FFAD33C
:102D000000F0AFFA00F01EFC00F023FC0220514955
:102D1000087100F00CFC00BF51480068B0F5FA7F64
:102D2000FAD300F00FFC00F014FC01E000E000BF5B
:102D300000BF10BD10B504464648007920B10128F7
:102D400026D002286ED148E00020FFF773FE00F085
:102D50009CFA00F0FEFB00F0EAFB00BF4048006870
:102D6000A042FBD300F07DFA00F0ECFB00F0F1FB99
:102D700002203849087100F0DAFB00BF38480068CB
:102D8000B0F5FA7FFAD300F0DDFB00F0E2FB4AE099
:102D90000020FFF74FFE00F078FA00F0DAFB00F0B9
:102DA000C6FB00BF2E490968B1EB440FFAD300F00F
:102DB00058FA00F0C7FB00F0CCFB0220254908714F
:102DC00000F0B5FB00BF26480068B0F5FA7FFAD3E3
:102DD00000F0B8FB00F0BDFB25E00120FFF72AFE64
:102DE00000F053FA00F0B5FB00F0A1FB00BF1C4956
:102DF0000968B1EB440FFAD300F033FA00F0A2FBFC
:102E000000F0A7FB01201349087100F090FB00BF00
:102E100013480068B0F5FA7FFAD300F093FB00F096
:102E200098FB00E000BF00BF10BD10B500240948AA
:102E3000C078012838D10749087800F0EEF9054933
:102E40004978054A32F81110024A1278024B2033B1
:102E500008E0000058000010080000105D0000109D
:102E6000B800001033F8122091FBF2F000EBD071A3
:102E700049104FF47A7201FB02F416488078012859
:102E800004D0022806D003280CD107E02046FFF723
:102E9000A3FE08E02046FFF7F6FE04E02046FFF719
:102EA00049FF00E000BF00BF10BD70B51A2101202E
:102EB00000F047F805461521012000F042F80446CD
:102EC00005B124B900221146012000F01CF870BDA4
:102ED000704700005800001070B504460E461546B5
:102EE0003CB9012000FA05F100223046FEF7A3FDAF
:102EF00008E0012C06D1012000FA05F10246304617
:102F0000FEF799FD70BD70B504460D461646012EBC
:102F100006D1012000FA05F12046FEF796FD06E0F5
:102F20002EB9012000FA05F12046FEF796FD70BD8E
:102F300070B5044600252046FEF797FD0546284655
:102F400070BD0246012000FA01F3052A32D2DFE803
:102F500002F0030C151E27007D4840691840984276
:102F600001D1012070470020FCE77948406B1840F0
:102F7000984201D10120F5E70020F3E77448406D45
:102F80001840984201D10120ECE70020EAE77048A0
:102F9000406F1840984201D10120E3E70020E1E7AB
:102FA0006C48006800EA0300984201D10120D9E78B
:102FB0000020D7E700BF00BF4FF0FF30D2E710B5C9
:102FC000002201210846FFF787FF00221146012059
:102FD000FFF799FF122201210846FFF77DFF01222A
:102FE00012211046FFF78FFF142201210846FFF738
:102FF00073FF012214211046FFF785FF1C220121D7
:103000000846FFF769FF01221C211046FFF77BFFEE
:103010001D2201210846FFF75FFF01221D211046F6
:10302000FFF771FF1E2201210846FFF755FF01221D
:103030001E211046FFF767FF022211460120FFF70D
:103040004BFF012202210846FFF75DFF0322022108
:103050000120FFF741FF012203210220FFF753FF68
:10306000152201210020FFF737FF1822012100203F
:10307000FFF732FF1A2201210020FFF72DFF042263
:1030800002210020FFF728FF022200210846FFF757
:1030900023FF032200210846FFF71EFF0422002120
:1030A0000846FFF719FF052200210846FFF714FF25
:1030B000062200210846FFF70FFF072200210846DD
:1030C000FFF70AFF082200210846FFF705FF092243
:1030D00000210846FFF700FF10BD10B50D210220AA
:1030E000FEF79DFC01201C49087010BD70B5044618
:1030F000002545F40055224629460220FEF749FCEA
:1031000000BF15200121814040094FF0E02202EB71
:103110008000C0F8001100BF00BF1520002805DAAC
:103120000220C0000D490122885404E00220C000A2
:103130000B491522885400BF70BD00BF1521012026
:10314000884008491522520941F8220000BF704703
:1031500000C0092094C009205D00001018ED00E0B7
:1031600000E400E080E100E000B585B003208DF8C8
:103170000C008DF80E0000208DF80F008DF8100067
:103180001A208DF80D0003A8FDF771F800208DF8C6
:103190000000022001906A4600214448FEF7C1FE6B
:1031A00000208DF8080001208DF80B0000208DF81C
:1031B00009008DF80A0002A93C48FEF797FF00239A
:1031C00043F2D40219463948FFF7E6F800220321FA
:1031D0003648FFF77BF903208DF8080000208DF8B2
:1031E0000B008DF809008DF80A0002A92F48FEF7A0
:1031F0007DFF002341F66A0203212C48FFF7CCF83B
:10320000012203212948FFF7A0F92848FEF75AFFB9
:1032100000202749087005B000BD2DE9F0410446A3
:10322000244850F824502946234800F04DFA074618
:1032300000F03CFB06460023024619461B48FFF7F8
:10324000ABF829461D4800F03FFA074600F02EFB78
:1032500006460023024603211448FFF79DF8BDE807
:10326000F08110B51248007801280DD100210F48D7
:10327000FEF7E8FE00210D48FEF703FF0B48FEF7BE
:1032800021FF00200A49087010BD10B508480078D9
:1032900050B901210548FEF7F4FE01210348FEF76D
:1032A000D1FE01200249087010BD000000800140DD
:1032B000B400001060000010005043460050C345A9
:1032C0001FB500208DF8080002208DF80A000020AC
:1032D0008DF80B008DF80C008DF8090002A8FCF7A2
:1032E000C6FF01208DF8090002A8FCF7C0FF4FF4CB
:1032F000E130009003208DF8050000208DF80400D7
:103300008DF8060069465348FDF768FC01215148D5
:10331000FDF77BFD012200214E48FDF7EDFE00BFC9
:1033200008200121814040094FF0E02202EB80009B
:10333000C0F8001100BF00BF0820002805DA0120F6
:10334000C000454A0421505404E00120C000434914
:103350000822885400BF02208DF808008DF80A006A
:1033600000208DF80B008DF80C008DF8090002A8E4
:10337000FCF77DFF01208DF8090002A8FCF777FF1C
:103380004FF4E130009003208DF8050000208DF807
:1033900004008DF8060069463148FDF71FFC012145
:1033A0002F48FDF732FD1FBD01462E4A92F900203D
:1033B000501CC21700EB12621212A0EB02222A4B21
:1033C00093F900309A4202D14FF0FF3070472748FE
:1033D000244A92F900208154224A92F90020501C7C
:1033E000C21700EB12621212A0EB022252B21D4B66
:1033F0001A700020EAE770B500BF16488068C4B2B2
:10340000641004F00704012C0ED0022C05D0032C0C
:1034100002D0062C09D106E008E00E4806783046B6
:10342000FFF7C2FF02E001E000E000BF00BF70BD97
:103430000849087000BF0749097D11F0400FFAD014
:1034400070470749087000BF0549097D11F0400F1A
:10345000FAD0704700C0094018ED00E000E400E039
:1034600000000140B5000010B6000010BC000010C4
:1034700000B585B000208DF80C000120049003AA4F
:1034800000214FF04020FDF74AF800208DF80000A1
:1034900046F2A810029001208DF801008DF803007B
:1034A00000208DF8020069464FF04020FDF736F904
:1034B00000BF0120002806DA0220C00027496FF073
:1034C0000202885404E00220C000254901228854E9
:1034D00000BF00BF012101FA01F049094FF0E022CD
:1034E00002EB8101C1F8000100BF4FF04020FDF761
:1034F000F8F800214FF04020FDF7D2F805B000BDEC
:1035000010B500214FF04020FCF7ABFF15480068D4
:10351000401C144908603020FFF78AFF11480068FA
:103520001149884202D900200E49086010BD10B52B
:103530004FF04020FDF7D5F801214FF04020FDF776
:10354000AFF810BD10B500214FF04020FDF7A8F8EE
:1035500010BD0020034908607047000018ED00E02E
:1035600000E400E0B8000010C027090053EA020C94
:1035700000F069802DE9F04B4FF00006002B1FBFD3
:10358000B3FA83F503FA05F424FA05F65E4012BF98
:103590001643B2FA82F502FA05F4C5F120051EBF02
:1035A00022FA05FC44EA0C04203556EA044C4FEAA2
:1035B000144418BF641C4FF000084FF000099042FB
:1035C00071EB030C39D3002919BFB1FA81F701FA65
:1035D00007F6B0FA80F700FA07F6C7F120071EBF1A
:1035E00020FA07FC46EA0C062037B6FBF4FCA7EBF2
:1035F0000507103F07F01F0BCBF120060CFA0BFB61
:103600002CFA06F644BFB3460026202FA4BF5E4620
:103610004FF0000B5BEA060C08BF4FF0010B19EBF3
:103620000B09ABFB027C48EB0608C01B06FB02CC77
:103630000BFB03CC71EB0C01C1E70B460246414684
:103640004846BDE8F08B13B54FF000004FF0000185
:10365000AFF30080BDE81C4070477546FCF73CFEA8
:10366000AE4605006946534620F00700854618B06F
:1036700020B5FCF787FDBDE820404FF000064FF075
:1036800000074FF000084FF0000B21F00701AC4697
:10369000ACE8C009ACE8C009ACE8C009ACE8C009B6
:1036A0008D4670470148704770470000C001001008
:1036B000014800F096B900000000C07F014800F00A
:1036C00090B900000000C07F4FF47F0C1CEAD012BC
:1036D0001EBF1CEAD11392EA0C0F93EA0C0F00F004
:1036E000A58090EA010F48BF42F4807240F4000CBC
:1036F00041F400002CF07F4120F07F4000B5814272
:10370000A2EB03020FF2401CACEB504EC0F10000E4
:103710009EF800E04FEA4E0E00FB0EFC38BF490059
:103720004FEA2C1C02F5FA020CFB0EF34FEACE1EF8
:103730004FEA112C4FEAC1210EEB635E0EFB0CFC2D
:103740004FEA1C5300FB03114FEA112C4FEA0131E1
:103750000EFB0CFC02F4807E42EB22424FEADC4C72
:1037600000FB0C11C14228BF09184CEB033301299F
:1037700024BF4EF0020E4EF0804E10EB410F24BFDE
:103780004EF0010E4EF0804E08BF4EF0040E4EF08B
:1037900008015DF804EB43EBC25018BFB2F57C0F93
:1037A00038BF704741EAC07108BF20F00100B2F590
:1037B0007C0F38BF704729D512F0F00F1CBF00F105
:1037C000C04000F000407047008182838485868776
:1037D00088898B8C8D8E8F919293959697999A9CD0
:1037E0009D9FA0A2A3A5A7A8AAACAEB0B2B3B5B73F
:1037F000B9BCBEC0C2C5C7C9CCCED1D4D7D9DCDF15
:10380000E2E6E9ECF0F3F7FAFE0000004FEA400CC4
:103810000CF1807CBCF17E4F28BF7047B0F1C040F6
:103820004FF07F404CBF40104008704790EA010FB6
:103830000CEAD11348BF42F48072624538BF634539
:1038400007D213F47F0F23D080EA010000F000407C
:1038500070474FF0807C1CEB400F98BF1CEB410F72
:10386000DFF840C03FF624AFAFF300804FF0807C1C
:103870001CEB400F02BF1CEB410F0B4870471CEBC9
:10388000410F0CBF002020F0004040EAC2507047BA
:1038900012F47F0F04BF0448704742F0FF004FEA64
:1038A000C0507047040000040000C07FC2154FEAFA
:1038B000002318BF43F0004305D4D2F19E020AD37F
:1038C00023FA02F070474FEA4001B1F1FE4F02D2F5
:1038D0004FF000007047DFF828C04FEA4001B1F117
:1038E0007F4F88BF4CF4803C3FF6E8AE1CBF6FEAC8
:1038F000E0707047AFF300806FEAE070704700003F
:103900006800020410B412F47F0F4FEA00204FEA5F
:10391000012110D1B0FA80F400FA04F0A2EB0442C5
:1039200013F47F0F02F5803218BF41F0004100D040
:1039300010BC18BF604740F00040B1FA81F401FAB2
:1039400004F1A3EB044310BC03F58033604710B5CA
:10395000FFF7A8FE4FF00001016010BD00F000432A
:1039600043EAD05323F48073C3F1C10323F0004131
:1039700017291FD8C3F1200310FA03F1C3F1200364
:1039800020F07F4040F4000020FA03F003F00043F1
:1039900040EA03000DD00B46590009D318BF401C64
:1039A00006D17FEAE27398BF401C38BF20F00100C7
:1039B00070477047182903EB912318BF6FF000413F
:1039C000013168BF03F0004009D6400203F0004017
:1039D00000F1010004BF12F0004F20F00100704719
:1039E00070470CF00F03092B08BF082000F02B8054
:1039F0000A2B0BD0082B18BF704708BF1CF0400FD4
:103A00000AD04FF000004FF0000170471CF0400F4B
:103A100018BF4FF0004070471CF0100F08D020F086
:103A2000704300F07F4242EAD3014FEA437070478F
:103A300000F0604021F07F4242EA000201F07F4046
:103A400040EA727070471CF4801F11D01CF4E02F04
:103A500003D06FEACC31490070474FF04050EFF38C
:103A6000008222F0704242EA000282F3008870472E
:103A70004FF0000070470000983A0000000000106E
:103A8000BC00000008010000543B0000BC00001016
:103A9000640300002401000000E1F50500000000BF
:103AA000320005000A000F00140019001E00230058
:103AB00028002D00320037003C00410046004B003A
:103AC000640005000A00190032004B0064007D000C
:103AD0009600AF00C800E100FA0013012C01450177
:103AE0005E0177019001A901C20100000000000001
:103AF00000000000000000000000803F42602D40F8
:103B00007368AD4083C0584183C0D8415C8F224266
:103B10007DBF5842CF778742DF8FA2426DA7BD425B
:103B2000AAB1D8428DD7F342CF7707439603154306
:103B30009E8F2243A61B3043AEA73D4375334B43B4
:103B40007DBF5843854B66434CD77343000000004C
:043B50000000000071
:04000005000000CD2A
:00000001FF
